:020000040800F2
:1000000020040020350100088F0C000807040008B8
:100010008D0C0008DB030008090F00080000000039
:10002000000000000000000000000000490D000872
:100030000504000800000000910C00084B0D0008AA
:100040004F0100084F0100084F0100084F01000850
:100050004F0100084F0100084F0100084F01000840
:100060004F0100084F0100084F010008DD030008A0
:100070004F0100084F0100084F0100084F01000820
:100080004F0100084F0100084F0100080000000068
:100090000000000000000000000000004F01000808
:1000A0004F010008110E00084F0100084F01000821
:1000B0004F0100084F0100084F0100084F010008E0
:1000C0004F0100084F0100084F0100084F010008D0
:1000D0004F0100084F0100084F0100084F010008C0
:1000E0004F0100084F0100084F0100080000000008
:1000F0000000000000000000000000000000000000
:1001000000000000000000000000000000000000EF
:1001100000000000000000004F0100084F0100082F
:10012000DFF80CD000F038F900480047690F0008EC
:10013000200400200648804706480047FEE7FEE707
:10014000FEE7FEE7FEE7FEE7FEE7FEE7FEE7FEE787
:10015000C50D000821010008D2B201E000F8012B12
:10016000491EFBD270470022F6E710B513460A4637
:1001700004461946FFF7F0FF204610BD421C10F858
:10018000011B0029FBD1801A70472DE9FE4F81EA3F
:10019000030404F0004421F0004100944FF0000BF0
:1001A00023F0004350EA010402D052EA030404D1D0
:1001B0000020014603B0BDE8F08FC3F30A54C1F339
:1001C0000A552C44A4F2F3340194A0FB0254C1F369
:1001D000130141F48011C3F3130343F4801301FBB3
:1001E000024400FB034E840A970A44EA815447EA1A
:1001F0008357A4FB076802958D0A05FB07854FEA24
:10020000932C04FB0C542705029D4FEA065847EA3D
:100210001637B5EB08056EEB070C870E920E47EA12
:10022000811742EA8312A7FB0201B6EB0B0164EBD4
:1002300000042B0D43EA0C335E1844EB1C50DA46E5
:100240005146E7FB0201C5F313044FEA0B3343EABF
:1002500014534FEA0432019C43EA0603A4F10C0450
:100260000294009CCDE900B400F044F8A2E70EB57A
:1002700040F2334102910021CDE900110A460B46BC
:1002800000F038F803B000BDC1F30A5210B5C1F355
:10029000130140F2FF3341F480119A4201DA002049
:1002A00010BD40F233439A42A2F2334203DC524281
:1002B00000F003F810BD904010BD202A04DB203A66
:1002C00021FA02F00021704721FA02F3D040C2F176
:1002D0002002914008431946704710B5002B08DAF8
:1002E000401C41F1000192185B411A4301D120F0FA
:1002F000010010BD2DE9F04D92469B4611B1B1FAB7
:1003000081F202E0B0FA80F22032904600F056F816
:1003100004460F4640EA0A0041EA0B0153465A469A
:10032000084303D120463946BDE8F08D114653EA13
:10033000010015D0C8F140025046FFF7BEFF054648
:100340000E4650465946424600F038F8084301D060
:10035000012000E00020054346EAE0762C433743C5
:100360000A984FEA4453A0EB08004FEAD4240A301D
:100370004FF0000244EA47544FEAD72502D5002047
:100380000146D1E7010510196941DDE90845001969
:100390006941BDE8F04DA0E7064C074D06E0E06876
:1003A00040F0010394E8070098471034AC42F6D3BC
:1003B000FFF7BAFE2410000844100008202A04DBCE
:1003C000203A00FA02F1002070479140C2F1200368
:1003D00020FA03F3194390407047FEE706490220D4
:1003E00048600648064A8168491C81601288416855
:1003F00011444160704700000000024004000020EA
:10040000000000207047FEE710B54B6884680122A9
:1004100014F0010F02D00022104610BD33B1D1E913
:1004200002342343446824F4A05403E04368CC68B6
:1004300023F4A0532343436083680C6823F4E04310
:10044000234383604968836B23F440130B43836326
:10045000E2E710B58368012213F0010F02D00022F9
:10046000104610BD43684C6823F4807323434360F7
:100470008368096823F400630B438360F0E700009E
:1004800070B54B688468012214F0010F02D000227D
:10049000104670BD33B18C682343446824F468442B
:1004A000234302E0436823F468434360CC680B684D
:1004B000856823430C69064E35402C4323438360F3
:1004C0004968C36A23F470030B43C362E0E700008A
:1004D000FDFEF1FF044908B58A6902438A61896912
:1004E0000140009108BD000000100240044908B519
:1004F0008A6902438A6189690140009108BD000050
:1005000000100240044908B58A6902438A6189697A
:100510000140009108BD00000010024070B50124A8
:1005200001F010015568066804FA01F3B3430ED0D8
:100530007DB113682B43D2E9025215432B43026865
:100540008B4040F6FA758D40AA4313430AE000241D
:1005500009E00368FA258D40AB431568D26815435E
:100560008D402B430360204670BDF0B50A68C2F38E
:100570000F2595FAA5F2B2FA82F369E001229A40BA
:100580002A4264D0082B03D240F201129A4006E0BE
:10059000A3F108024FF00114944044F0806292FAF3
:1005A000A2F700EB1264B7FA87F74FEA870C0F2720
:1005B000266807FA0CF7BE4392FAA2F7D1F804E0D6
:1005C000B7FA87F7BF000EFA07FE46EA0E06266066
:1005D0000E69C7684FEA122C9CFAACFCBCFA8CFC82
:1005E00027EA122706FA0CF63743C7604E68012E39
:1005F00001D0092E2BD192FAA2F7B7FA87F74FEA6A
:10060000870C032707FA0CF72668D1F808E0BE43E9
:1006100092FAA2F7B7FA87F7BF000EFA07FE92FA2E
:10062000A2FC46EA0E06BCFA8CFC4FEA8C0E4FF098
:10063000040C26600CFA0EFC92FAA2F2B2FA82F2D4
:10064000CF68920026EA0C0697403E4326605B1C6A
:1006500035FA03F292D10120F0BD4FF47A71B0FB6C
:10066000F1F14FF0E020491E416100218161052137
:100670000161704700B5034600F036FB186000F0DA
:1006800009FB586000F014FB9860586800F01EFBEE
:10069000D86000BD014908607047000018000020C4
:1006A000F0B502681D4B1E4C1E4D4FF0804E984217
:1006B00005D0704503D0A04201D0A84203D14E68B6
:1006C00022F070023243184E184FDFF864C098428F
:1006D0000BD0704509D0A04207D0A84205D0B04247
:1006E00003D0B84201D0604503D1CC6822F44072F7
:1006F000224302608A68C2620A888262984205D0F8
:10070000B04203D0B84201D0604501D1097C0163F9
:10071000416941F0010141610120F0BD002C01401F
:100720000004004000080040004001400044014037
:10073000004801407FB50446C0680D460026C0F35E
:10074000403078BBE9686868AA69084329691143A1
:100750000843E16849F20C6291430843E060A868ED
:10076000216921F44051014321616869616921F4E3
:100770004071014361616846FFF77CFF0B4884428A
:1007800001D1039906E00A48844202D00948844214
:1007900008D1029931B12B6823B101262046AA69FC
:1007A00000F00AF804B0304670BD00000038014087
:1007B000004400400048004070B56425322401EB3D
:1007C000C10606EB0111B2F5004F17D09A00B1FB3C
:1007D000F2F2B2FBF5F16FF018034B4302EB830228
:1007E00004EB0212B2FBF5F202F0F00303EB01118D
:1007F00002F00F02114489B2816070BD5A00B1FB52
:10080000F2F2B2FBF5F10B016FF01806714302EB47
:10081000810104EBC101B1FBF5F101F0F80203EB3A
:10082000420201F007011144E5E700002DE9F04123
:1008300090B000240E94142168460F94FFF793FCA7
:10084000059406940794142109A80894FFF78BFCDB
:100850004FF40070FFF74AFE0420FFF747FE40F216
:100860000110CDE9090409A96F48FFF77EFE704A1F
:100870006E49501C12788A5844F210039A4310F8BB
:10088000013DCA5002788A58037822F44052CA5077
:1008900002788A58037842F02002CA5002788A58B7
:1008A000037822F04002CA5002788A58037822F076
:1008B0008002CA5002784FF480788A58037822F474
:1008C000407242F48072CA5002780D158A5803783B
:1008D00022F4406242F48062CA50544B06780C33D2
:1008E000544AF250514E03780836534A9A510378CD
:1008F0000A1D9B5806786FF30F0343F00103B350B2
:1009000002788A58037842F00202CA5002788A5864
:10091000007842F001020A50474E0E943C3E0EA968
:1009200030460F94FFF795FD4FF4602000900127AB
:10093000CDE90174CDE9034869463046FFF7A0FDD3
:100940004FF4E040CDE9050705A93046CDE907455C
:10095000FFF75AFDB16BE803C1F30151B26B491CBB
:10096000C1F1030101EB81011F238B409A4304FA7B
:1009700001F10A43B26390FAA0F24FF0F873B2FAB1
:1009800082F293FAA3F5D04006EB8000B5FA85F524
:1009900093FAA3F324FA05F50727C268B3FA83F3A1
:1009A000052107FA05F724FA03F3BA4301FA03F124
:1009B0000A43C2604FF4405090FAA0F0B0FA80F0C1
:1009C00024FA00F406EB840041696FF30B014161E6
:1009D0001A49086840F00400086008684007FCD520
:1009E000086840F4E0400860086840F4004008608F
:1009F000086840F0020008601048001F026842F4D6
:100A0000806202600C48001F02680260086840F0C3
:100A100001000860086840F4001008603068400772
:100A2000FCD510B0BDE8F081000801400000024094
:100A3000FE0F0008000000203C2401400824014073
:100A400010B58AB00024009401940294142104A8E3
:100A50000394FFF788FB1748C16941F00051C16159
:100A6000C16901F000510991816941F0040181617E
:100A7000806904A900F00400099041F2100004907C
:100A8000092005900C48FFF770FD3820CDE90004DF
:100A900003940B4C6A4609492046FFF73FFD206846
:100AA00020F004002060206840F0010020600AB0BF
:100AB00010BD0000001002400008014001001002BB
:100AC000007400400E4808B5416941F001014161E0
:100AD000406900F0010000900A480068C0F302205D
:100AE000011D072901D2002000E0C01E0021814025
:100AF00008010549087005484FF40061016008BD10
:100B0000001002400CED00E00BE400E000E100E02A
:100B100000B585B014216846FFF725FB2020FFF7BC
:100B2000D9FC0420FFF7D6FC41F211100090002000
:100B3000019069460248FFF718FD05B000BD0000AE
:100B40000008014010B586B014216846FFF70BFB82
:100B50002348816941F400618161806900F400608B
:100B6000059020480068C0F30220011D072901D22A
:100B7000002000E0C01E002202FA00F108011A491C
:100B800008701A484FF0007101605020ADF8000065
:100B90004FF47A70CDE90120154C03928DF81020A6
:100BA00069462046FFF77CFD206820F08000206029
:100BB000A06844F207018843A060606820F07000DC
:100BC0006060A06820F08000A060E06840F0010054
:100BD000E060206840F00100206006B010BD000019
:100BE000001002400CED00E019E400E000E100E03C
:100BF000002C014030B58DB01C216846FFF7B3FAD8
:100C0000142107A8FFF7AFFA4FF48040FFF77AFCF2
:100C10000420FFF777FC194807900920089003206B
:100C20000024CDE90904164D07A92846FFF79DFCCD
:100C3000144807900420089007A92846FFF795FC60
:100C40004FF4E130CDE900040C200294CDE90340DB
:100C5000059406940C4C69462046FFF76BFD20690D
:100C600020F490402061606920F02A006061E06813
:100C700040F40050E0600DB030BD000002000204FE
:100C8000000801400400040400380140FEE77047FA
:100C90007047000004494968044A01F0F00109095D
:100CA000515CC84070470000001002400C10000862
:100CB00004494968044A01F4E06102EB1121097812
:100CC000C8407047001002401C10000804494968E1
:100CD000044A01F4605102EBD1210978C840704701
:100CE000001002401C1000080648406810F00C017B
:100CF000054805D0042903D0082901D100F006B821
:100D0000704700000010024000127A000B48416852
:100D100011F480320A4909D0B2F5803F06D1C16A88
:100D2000084A01F00F01491CB2FBF1F140680222B0
:100D300000F4701002EB90404843704700100240EE
:100D400000093D0000127A007047704770B51B4CD7
:100D5000206840F4803020602068C0F340400028C4
:100D6000FAD0606820F0F0006060606820F4E06015
:100D70006060606820F4605040F40050606060681B
:100D800020F0030040F001006060606800F00C009B
:100D90000428FAD10A4D2846FFF75FFC4FF0E02106
:100DA000086940F0040008612846FFF773FC60689A
:100DB00020F4404040F40040606070BD00100240EC
:100DC00000127A000E48016841F00101016041689B
:100DD0000C4A1140416001680B4A114001600168F2
:100DE00021F480210160416821F4FE0141604FF44B
:100DF0001F0181600021C1620449C003086070477F
:100E0000001002400000FFF8FFFFF6FE08ED00E0D2
:100E1000F8B534A03449006800260090B01E08617F
:100E2000334A3249501C12788A5810F8013D22F09A
:100E30000202CA50304D4FF4702797FAA7F7D5E950
:100E400001242C4BB7FA87F7B2FBF4F226FA07F726
:100E500003EB870334469F686FF30B0717439F60CC
:100E6000EB686E601A44C5E902620378CB580078DB
:100E700043F002030B506888642802D0401C68804D
:100E8000F8BD6420B2FBF0F06C80FFF7F0F91B4A6C
:100E90001B4BFFF77AF9FFF7F7F91749E8601031B4
:100EA00000F042F8144B28701649103308E00A6825
:100EB000C2F38012002AFAD09A5D4A60761CF6B21C
:100EC0008642F4D300206B460A68C2F38012002ADF
:100ED000FAD01A5C4A60401CC0B20428F4D36C807B
:100EE000F8BD0000206D560D002C014000000240AE
:100EF0000510000800740040040000200F0BB5A688
:100F000079C7E93F00380140FEE702E008C8121F38
:100F100008C1002AFAD170477047002001E001C1E2
:100F2000121F002AFBD1704770B50024031E00DA9F
:100F3000584200220A25064690FBF5F005FB106694
:100F400030368E54521C641C0028F4DC002B03DA6B
:100F50002D20641C8854521C00208854084600F040
:100F60003FF8E0B270BD0000194808B5816941F052
:100F700001018161816901F001010091C16941F0C4
:100F80008051C161C069134900F080500090086829
:100F90004FF6FF021040104A40F4407010430860C2
:100FA0000E48416821F0E0614160416841F0007104
:100FB0004160FFF7CBFEFFF7ABFDFFF783FDFFF7C7
:100FC00035FCFFF73DFDFFF7BDFDFFF713FEFEE724
:100FD000001002400CED00E00000FA0500000140A6
:100FE00070B505460024FFF7C9F804E0295D2A5CC6
:100FF0002A552954641C401E8442F7DB70BD081C2E
:101000003044586C80081C3044586C80000000004C
:1010100000000000010203040607080900000000A8
:101020000102030444100008000000201C0000001E
:101030000A0F0008601000081C00002004040000D3
:101040001A0F00080000000000000000000000006F
:1010500000000000000000002020202000366E016B
:0400000508000121CD
:00000001FF
